:100000000C9472000C9493000C9493000C94930045
:100010000C9493000C9493000C9493000C94930014
:100020000C9493000C9493000C9493000C94930004
:100030000C9493000C9493000C9493000C949300F4
:100040000C9493000C9493000C9493000C949300E4
:100050000C9493000C9493000C9493000C949300D4
:100060000C9493000C9493000C9493000C949300C4
:100070000C9493000C9493000C9493000C949300B4
:100080000C9493000C9493000C9493000C949300A4
:100090000C9493000C9493000C9493000C94930094
:1000A0000C9493000C9493000C9493000C94930084
:1000B0000C9493000C9493000C9493000C94930074
:1000C0000C9493000C9493000C9493000C94930064
:1000D0000C9493000C9493000C9493000C94930054
:1000E0000C94930011241FBECFEFD1E2DEBFCDBF31
:1000F00000E00CBF12E0A0E0B2E0E0E9F6E000E0D2
:100100000BBF02C007900D92A031B107D9F712E0E2
:10011000A0E1B2E001C01D92AC31B107E1F70E944D
:10012000AB010C9446030C94000012B80895E1EC66
:10013000F0E010821092C00086E08093C2008FE54C
:100140008093C4001092C50088E980830895EAE78F
:10015000F0E08081876880830895E0ECF0E08081A2
:100160008823ECF78091C6000895E0ECF0E09081E0
:1001700095FFFDCF8093C60008958FEF8093010116
:1001800081B91092020112B808958FEF8093010196
:100190001092020181B984B912B8089581E0809368
:1001A0000201089510920201089580EA82B908952B
:1001B00080E582B90895109217021092160281E02C
:1001C0008DBB0E9495008FEF9FE7A6E18150904084
:1001D000A040E1F700C0000078942091180230910F
:1001E00019028091060290910702821793076CF022
:1001F00040E942B92091180230911902809106021B
:100200009091070282179307A4F7F8940895CF936B
:10021000DF93109217021092160281E08DBBC5E9A0
:10022000D0E0FE0119958FEF9FE7A4E08150904048
:10023000A040E1F700C000007894809116029091F0
:100240001702833391054CF420E922B980911602FC
:100250009091170283339105C4F3F894FE01199528
:10026000DF91CF91089580E182B9089580E482B949
:10027000089510921702109216020E9495008FEFB7
:100280009FE7A4E081509040A040E1F700C000004B
:1002900081E08DBB789420911802309119028091F1
:1002A000060290910702821793077CF050E442E324
:1002B00052B947BD2091180230911902809106026F
:1002C00090910702821793079CF7F89408950E9473
:1002D000950010921302109212028FEF9FE7A4E094
:1002E00081509040A040E1F700C0000082E08DBB4B
:1002F000789420911A0230911B028091040290910F
:100300000502821793077CF050E142E352B947BDE2
:1003100020911A0230911B028091040290910502F3
:10032000821793079CF7F894089581E082B90895A5
:1003300012B80895EAE7F0E08081806480838081CC
:1003400084FFFDCFEAE7F0E08081806180838091C7
:10035000790090E00895CF93DF9300D000D0CDB71F
:10036000DEB70E94C5000E94BD000E94A700E9E61A
:10037000F0E080818F60808393E894BD85E085BD47
:100380009093B0008093B1008CE387BD84E68093A6
:10039000B3000F2EFCE7CF2EDD24F02D0F2EF0E65C
:1003A0008F2EF02D0F2EF2E65F2EF02D0F2EF4E69D
:1003B0004F2EF02D99249394AA24BB24A394662451
:1003C00077243324D6018C920E949A019E838D83D8
:1003D000F60150820E949A018C01D6014C920E9433
:1003E0009A01BC0140910E0250910F02ED81FE81F5
:1003F000E417F5078CF080910C0290910D028017A4
:10040000910754F080910A0290910B02861797078A
:100410001CF00E943601D6CF292D8D819E81481770
:1004200059070CF4232DA0910C02B0910D02392D27
:100430000A171B070CF4332DE0910A02F0910B020E
:10044000822F8323E82EFF24C501E617F7070CF45B
:10045000C3018E219F21009719F00E94D500B2CFD1
:10046000222371F0A017B10734F06E177F071CF03C
:100470000E943301A7CF332319F06E177F0784F44E
:10048000AD81BE81A417B5070CF49CCF332309F4CA
:1004900099CFE617F70724F46E177F070CF492CF75
:1004A000E0E0F2E08E2F0E94B5000E94AD0082379E
:1004B00019F40E94070187C08C3619F40E94DB00F2
:1004C00082C0893699F50E9439010E9495008FEF0C
:1004D0009FE3A2E081509040A040E1F700C00000FF
:1004E0007894709217026092160280911002909197
:1004F00011022091180230911902821793076CF0B3
:100500000E94D5008091180290911902209110024A
:1005100030911102281739079CF7F894A981BA8104
:100520001196BA83A983BC82AB824DC0853699F5FA
:100530000E9467010E9495008FEF9FE3A2E0815027
:100540009040A040E1F700C000007894709217023C
:10055000609216028091100290911102209118026F
:1005600030911902821793076CF00E94D500809198
:10057000180290911902209110023091110228174F
:1005800039079CF7F894A981BA811196BA83A98397
:10059000BC82AB8218C08236B1F40E9495018FEF05
:1005A0009FEFA0EE81509040A040E1F700C0000016
:1005B0000E94980112B81092020102E012E0802F0E
:1005C0000E94B500FCCF998190FD17C0AB81BC8122
:1005D000A130B10591F40E94CE000E9495018FEFE9
:1005E0009FEFACE281509040A040E1F700C00000D6
:1005F0000E9498017C826B82E5CE89819A8162E0BB
:1006000070E00E941F038130910509F0DBCEAB81C1
:10061000BC81A130B10509F0D5CE0E94D2000E9464
:1006200095018FEF9FEFACE281509040A040E1F741
:1006300000C000000E9498017C826B82C3CE97FBB1
:10064000092E07260AD077FD04D00CD006D0002052
:100650001AF4709561957F4F0895F6F790958195FE
:100660009F4F0895AA1BBB1B51E107C0AA1FBB1FC8
:10067000A617B70710F0A61BB70B881F991F5A952E
:10068000A9F780959095BC01CD010895F894FFCF0E
:1006900061006300020002006400640064009600D0
:00000001FF
